:1000000012C01FC01EC01DC01CC01BC01AC019C01A
:1000100018C017C016C015C014C013C012C011C03C
:1000200010C00FC00EC011241FBECFEDCDBF20E009
:10003000A0E6B0E001C01D92A036B207E1F732D0D1
:1000400036C0DECF81E088BD089587B38F7B87BB44
:1000500088B3806488BB8BB780648BBF85B78160B1
:1000600085BF85B78D7F85BF089587B3826087BBC5
:1000700087B38E7F87BB88B3816088BB8DB18F7D4E
:100080008DB98DB180618DB98DB188608DB98DB11B
:100090008B7F8DB908958AB386608ABBD3DFD5DFA5
:1000A000E4DF0895F8DF789485E68FB9FDCFF89402
:0200B000FFCF80
:00000001FF
